:101BC500121B9A7F0112189412000E121B6412192F
:031BD500FB80FB97
:100B2A008888040402FD1010080804E2000001018C
:100B3A0002050101010101001054107E9834520887
:100B4A003E2418A60101010F040505050502050842
:100B5A00404FE8293AEA24E42A2AE9200102070157
:100B6A00010701070101070080FC24FC24E404F4C6
:100B7A0024448472000F020F020300070402010ECC
:100B8A00048800FE2020FF2050880403010000038F
:100B9A0000000700000001061010F01010FF10708E
:100BAA00901010100000030000070000010200006E
:100BBA00101008FE52525252525252FF00000003C5
:100BCA000202020202020207FE2242FF22FE22FE65
:100BDA0020FE20FF030202070203020300030007AC
:100BEA000E1111111111110E040604040404040E4D
:100BFA000E1111080402011F0E11100C1010110E13
:100C0A00080C0C0A091F081C1F01010F1110110EF4
:100C1A000C12010D1311110E1E100808040404040D
:100C2A000E11110E1111110E0E11111916100906BD
:101165009000C6EFF0A3EDF0A3EBF0A3EAF0A3E93E
:01117500F089
:10117600E4A3F0A3F0E49000CDF0A3F09000CDE05E
:10118600FEA3E0FFC39406EE94005074AE079000F1
:10119600C6E02EFFC0079000CBA3E0FF9000C7E09B
:1011A6002FFDA3E0FBA3E0FAA3E0F9A3E0F8A3E098
:1011B600F5828883120394FB7A00A80674017E00E8
:1011C600088005C333CE33CED8F9FFEE5AFEEF5B67
:1011D600F4FFEEF4FE9000CDA3E0FCEFA804088037
:1011E60006CEA2E713CE13D8F8FBD0071212E99069
:1011F60000CEE004F070859000CDE004F00211828C
:101206009000CCE004F070069000CBE004F0C390B0
:1012160000CCE094089000CBE09400500302117BD0
:0112260022A5
:040EEC00FFA3E0FD83
:100EF0009000C4EFF0A3EDF0EBB40A004003020F42
:100F0000C8900F08F8282873020F26020F37020F27
:100F100047020F57020F67020F77020F87020F97E2
:100F2000020FA7020FB79000C4E0FFA3E0FD7BFF14
:100F30007A0B79EA020FC59000C4E0FFA3E0FD7BC5
:100F4000FF7A0B79F2807E9000C4E0FFA3E0FD7B86
:100F5000FF7A0B79FA806E9000C4E0FFA3E0FD7B7E
:100F6000FF7A0C7902805E9000C4E0FFA3E0FD7B75
:100F7000FF7A0C790A804E9000C4E0FFA3E0FD7B6D
:100F8000FF7A0C7912803E9000C4E0FFA3E0FD7B65
:100F9000FF7A0C791A802E9000C4E0FFA3E0FD7B5D
:100FA000FF7A0C7922801E9000C4E0FFA3E0FD7B55
:100FB000FF7A0C792A800E9000C4E0FFA3E0FD7B4D
:090FC000FF7A0C7932121165224E
:0B17C2009000C0EFF0A3EDF0A3EBF0EF
:1017CD00C39464401AE075F06484A3F0FB9000C0EC
:1017DD00E0120EEC9000C2E075F06484E5F0F0903C
:1017ED0000C2E0FFC394645022EFC3940A401CEF83
:1017FD0075F00A84A3F0FB9000C0E02406120EECF5
:10180D009000C2E075F00A84E5F0F09000C2E0FBB4
:0E181D00C3940A50099000C0E0240C120EEC97
:01182B00229A
:040A0B007BFF7D01EF
:100A0F009000BFEFF0A3EDF0A3EBF0A3EAF0A3E9A2
:010A1F00F0E6
:100A2000E4A3F09000C4E0FFC394184003020B2934
:100A3000EFC3940C5073E4A3F09000C5E0FE900067
:100A4000BFE02EFFC0079000C4E0FF9000C0E02F81
:100A5000FDA3E0FBA3E0FAA3E0F9A3E0F582758330
:100A600000120394FB7A00A80674017E000880053A
:100A7000C333CE33CED8F9FFEE5AFEEF5BF4FFEE70
:100A8000F4FE9000C5E0FCEFA804088006CEA2E7C3
:100A900013CE13D8F8FBD0071212E99000C5E0047A
:100AA000F0E0C3940840928077E49000C5F0900095
:100AB000C5E0FE9000BFE02E2408FFC0079000C4F0
:100AC000E0FF9000C0E02F24F4FDA3E0FBA3E0FAD8
:100AD000A3E0F9A3E0F582758300120394FB7A008A
:100AE000A80674017E00088005C333CE33CED8F942
:100AF000FFEE5AFEEF5BF4FFEEF4FE9000C5E0FC63
:100B0000EFA804088006CEA2E713CE13D8F8FBD0D6
:100B1000071212E99000C5E004F0E0C39408408E8B
:090B20009000C4E004F0020A2375
:010B290022A9
:10122700E49000CAF07B40FD7F511219CDE4900095
:10123700CAF07B807D3FFF121ACA7A0B792A7F5347
:10124700120A0B7A0B79427F5F120A0BE4FB7D0AC5
:101257007F6C1212E9E4FB7D0C7F6C1212E97BFFB5
:101267007A0B798A7D0E7F53120A0F7BFF7A0B79EF
:10127700A27D0E7F5F120A0FE4FB7D177F6C1212AF
:10128700E9E4FB7D197F6C1212E97BFF7A0B795A2F
:101297007D1B7F53120A0F7BFF7A0B79727D1B7FB1
:1012A7005F120A0FE4FB7D247F6C1212E9E4FB7DD9
:1012B700267F6C1212E97BFF7A0B79BA7D287F5360
:1012C700120A0F7BFF7A0B79D27D287F5F120A0FF4
:1012D700E4FB7D317F6C1212E9E4FB7D337F6C0206
:0212E70012E90A
:10145E00D3CECFB7BDE1CAF800B5B1C7B0B7D6A3EA
:10146E00BA00D7EEB8DFB7D6A3BA00A3A1B2BBB805
:10147E00D2CFE0D0C5D3AEC1CBA3A100A3A1C4E30C
:10148E00CCABC5A3C1CBA3A100A3A1D3A2D0DBC17A
:10149E00F4CFC2C3FBD7D6A3A100BFAACABCD3CE7A
:1014AE00CFB70000DC9898FCDFFCFEBBDC98000098
:1014BE00010107070103070D01010004040C0A0ACC
:1014CE001E12330F12120E1212120F1E11010608E7
:1014DE0010110F1F1504040404040E0F12120E0A2D
:1014EE001212371E1101010101110E37120A060ADE
:0314FE0012123790
:101A370041000F004100150141001000410019004D
:101A47004100110041001800410000004100010061
:081A57004100841441008304E6
:101B6400758911758C7D758ACBE4F58DF58BD2A9B9
:0B1B7400D2ABD28CD28ED2B9D2AF22FD
:100C3A001210A0E4FBFA799E78421201161202FA07
:100C4A00900082E0241AF582E43400F583EFF01272
:100C5A0010A0E4FBFA79787842120116E4FBFA79DB
:100C6A0080783F1200251202FA900082E0244EF5A5
:100C7A0082E434008033900082E0241AF582E4345E
:100C8A0000F583E0FF900012E0FEEFB50621121096
:100C9A00A0E4FBFA799E78421201161202FA900039
:100CAA0082E0241AF582E43400F583EFF080C790DD
:100CBA000082E0244EF582E43400F583E0FF9000E0
:100CCA0013E0FEEFB5062B1210A0E4FBFA79787850
:100CDA0042120116E4FBFA7980783F1200251202CB
:100CEA00FA900082E0244EF582E43400F583EFF0B6
:100CFA0080BD900082E0FE241AF582E43400F58378
:100D0A00E0FF744E2EF582E43400F583E0FDE4FB47
:0A0D1A001212E9900082E004F022BA
:03000B000213AA33
:1013AA00C0E0C0F0C083C082C0D075D000C000C009
:1013BA0001C002C003C004C005C006C007758C7D09
:1013CA00758ACB900010E004F0E06403706BF012B1
:1013DA001743EF24FE602114602F14603D14604B04
:1013EA00146050240570529000B8E0B4020280499B
:1013FA009000837401F080419000B8E0B40102804B
:10140A00389000837402F080309000B8E0B404028F
:10141A0080279000837403F0801F9000B8E0B40323
:10142A000280169000837404F0800E900083740585
:10143A00F080069000837406F0D007D006D005D05D
:10144A0004D003D002D001D000D0D0D082D083D033
:04145A00F0D0E032BC
:03001B0002192C9B
:10192C00C0E0C083C082C0D075D000C007758D00E8
:10193C00758B00900019E004F0E0B41907E4F09006
:10194C00000104F0900011E004F0900084E0FF909E
:10195C000011E0B50707E4F090001804F0D007D0B0
:08196C00D0D082D083D0E0321C
:10182C00121B9A7F011218947BFF7A14795EE4FDE7
:10183C007F021218E190000FE0FF9000BBE0FED396
:10184C009F400590000FEEF07BFF7A1479677D02C4
:10185C007F011218E19000BBE0FB7D287F5012172E
:10186C00C27BFF7A1479707D037F011218E190001E
:10187C000FE0FB7D387F501217C29000157401F0F9
:08188C00900083E0B405F32293
:0616BD007B017A00799E1A
:0E16C3009000C0EFF0A3EBF0A3EAF0A3E9F073
:1016D100E49000C8F09000C704F09000B7E014FF58
:1016E1009000C7E0FEC39F50569000C1E0FBA3E00D
:1016F100FAA3E0F98E82758300120394FF12037B33
:10170100FD9000C0E0FB3395E0FAED2BFDE43AFCDF
:10171100EFB50523E4B5041F9000C4E0FBA3E0FA94
:10172100A3E0F9A3E0F582758300120394FF12038D
:101731007BB507037F00229000C7E004F0809B7F08
:0117410001A6
:011742002284
:100FC900800C900012E075F00384E5F0602C12109B
:100FD900A0E4FBFA799E78421201161202FA9000F7
:100FE90012EFF080DD900013E024FFFFE434FFFEF0
:100FF9007C007D031203C1ED60211210A0E4FBFA0D
:1010090079787842120116E4FBFA7980783F120068
:10101900251202FA900013EFF080CAE49000C0F0A4
:101029009000B7E0FF9000C0E0FEC39F503C9000E5
:1010390012E02401FDE433FC74852EF582E43400CA
:10104900F583E07E00B5051AEEB504169000C0E000
:10105900249EF582E43400F583E0FF900013E06FED
:1010690060089000C0E004F080B69000B7E0FF90FF
:1010790000C0E06F6003020FD7900012E0FFC007C5
:10108900A3E0FE14FDEF2402FBEE049000C4F0E49B
:07109900A3F0D0070215A22D
:100D24001210A0E4FBFA799E78421201161202FA1C
:100D340090000EE02402F582E43400F583EFF01213
:100D440010A0E4FBFA797C78421201161202FA90A0
:100D5400000EE02408F582E43400F583EFF0B2904D
:100D640090000EE02402F582E43400F583E024FFD1
:100D7400FFE434FFFE7C007D031203C1ED60211209
:100D840010A0E4FBFA799E78421201161202FA903E
:100D9400000EE02402F582E43400F583EFF080C015
:100DA40090000EE02408F582E43400F583E024FF8B
:100DB400FFE434FFFE7C007D031203C1ED602112C9
:100DC40010A0E4FBFA797C78421201161202FA9020
:100DD400000EE02408F582E43400F583EFF080C0CF
:100DE40090000EE0FE2402F582E43400F583E0FF77
:100DF40074082EF582E43400F583E0FDE4FB121A56
:080E0400F890000EE004F0225A
:101A6B009000BBE0FB7D057F6E1217C29000BCE0BF
:101A7B00FB7D127F6E1217C29000BDE0FB7D1F7FB6
:101A8B006E1217C29000B9E0FB7D2C7F6E0217C25D
:101974009000BBE075F005849000BDF09000BCE0E1
:10198400C394025016A3E0FFC39401500690008450
:101994007405F0EFC39401401E80169000BDE0FF73
:1019A400C3940350069000847405F0EFC39403407D
:0819B400069000847401F0228A
:101501009000BBE0C3940A50030215A1900000E0D3
:10151100600302159BFF900082E0FEEFD39E507A9C
:1015210090009EE0FE14FD744E2FF582E43400F528
:1015310083E0FCC39D405FEE2401FBE433FAECD36E
:101541009BEA6480F8748098504C900085E0FE140A
:10155100FD741A2FF582E43400F583E0FCC39D404D
:1015610035EE2401FBE433FAECD39BEA6480F87492
:1015710080985022744E2FF582E43400F58374561E
:10158100F0741A2FF582E43400F5837450F0900062
:10159100B9E014F080040F0215179000BC7402F03A
:0115A1002227
:10054D00E4900018F0120FC99000147401F090009F
:10055D00857410F090009E7401F0900086740DF07B
:10056D0090009F7401F0900087740AF09000A074C1
:10057D0001F09000887407F09000A17401F09000D4
:10058D00897404F09000A27401F09000B77405F026
:10059D00A314F09000BA7401F09000B97403F0E464
:1005AD009000BBF0A304F0A3F0E4900082F0900063
:1005BD000EF0121A6B900085E0FE14FF90009EE085
:1005CD00FC14FDEE04FBEC049000C4F0E4A3F01267
:1005DD0015A2900086E0FE14FF90009FE0FC14FD34
:1005ED00EE04FBEC049000C4F0E4A3F01215A2900D
:1005FD000087E0FE14FF9000A0E0FC14FDEE04FB6C
:10060D00EC049000C4F0E4A3F01215A2900088E071
:10061D00FE14FF9000A1E0FC14FDEE04FBEC049031
:10062D0000C4F0E4A3F01215A2900089E0FE14FFBF
:10063D009000A2E0FC14FDEE04FBEC049000C4F06D
:10064D00E4A3F01215A27FE87E03121B44900083F1
:10065D007404F0900015E064026003020A0A900031
:10066D0018E0640160030209C6F09000BBE0641459
:10067D00703B121B9A7F011218947BFF7A147979C3
:10068D00E4FDFF1218E17BFF7A14798A7D017F0169
:10069D001218E17BFF7A1479977D02E4FF1218E1BD
:1006AD009000157401F0900083E0B405F390008381
:1006BD00E0B40611900083E0B405F9E4900018F061
:1006CD00E4900018F0900083E0FF6405600AEF6489
:1006DD000660059000B8EFF01219749000B8E02490
:1006ED00FE604114606F14700302079324036003CE
:1006FD000207CB90009EE0FF6401604CEF604990D3
:10070D0000C47401F0A37400F0A37485F07FFD1292
:10071D0016BDEF70030207BDE4900016F0A374FD43
:10072D00F00207CB90009EE0FF643D601BEF64403C
:10073D0060169000C47401F0A37400F0A37485F0EA
:10074D007F031216BDEF70028066E4900016F0A3D1
:10075D007403F08069900085E0FF6401601FEF6015
:10076D001C9000C47401F0A37400F0A3749EF07B80
:10077D00017A0079857FFD1216C3EF7002803190EA
:10078D00001674FD8034900085E0FF644F6021EF0A
:10079D006452601C9000C47401F0A37400F0A37443
:1007AD009EF07B017A0079857F031216C3EF7005E9
:1007BD0012182C80099000167403F0E4A3F0900039
:1007CD00B9E0700312182C900016E0FF3395E0FE8F
:1007DD00900085E02FFFE43EFE900012E02401FD25
:1007ED00E433FCEF6D7002EE6C600302088A90003A
:1007FD0017E0FF3395E0FE90009EE02FFFE43EFEF4
:10080D00900013E06F7001EE7073A3F09000B7E0ED
:10081D0004F0E0149000BFF09000BFE0D3940040CE
:10082D003DE0FF2484F582E43400F583E0FE748519
:10083D002FF582E43400F583EEF09000BFE0FF2445
:10084D009DF582E43400F583E0FE749E2FF582E47D
:10085D003400F583EEF09000BFE014F080BA900004
:10086D0016E0FF900085E02FF0900017E0FF90005C
:10087D009EE02FF09000BBE004F002093C9000B721
:10088D00E0FE2484F582E43400F583E0FC14FF746B
:10089D009D2EF582E43400F583E0FE14FDEC04FB9F
:1008AD00EE049000C4F0A37401F01215A29000B7ED
:1008BD00E0149000BFF09000BFE0D39400403DE005
:1008CD00FF2484F582E43400F583E0FE74852FF572
:1008DD0082E43400F583EEF09000BFE0FF249DF537
:1008ED0082E43400F583E0FE749E2FF582E434003B
:1008FD00F583EEF09000BFE014F080BA900016E0A2
:10090D00FF900085E02FF0900017E0FF90009EE033
:10091D002FF0900085E0FE14FF90009EE0FC14FD8A
:10092D00EE04FBEC049000C4F0E4A3F01215A290C9
:10093D000014E0700504F0120FC9E49000BFF090B0
:10094D00000EE0FF9000BFE0FED39F506674022EB4
:10095D00F582E43400F583E0FF900085E06F70468A
:10096D009000BFE02408F582E43400F583E0FD90AB
:10097D00009EE0B505309000B9E004F090000074E1
:10098D0001F0FB1212E99000BFE0FF2402F582E4B2
:10099D003400F5837456F074082FF582E43400F5B5
:1009AD00837450F0800DE4900000F09000BFE004DF
:1009BD00F0808C121501121A6B900001E064016039
:1009CD0003020660F09000BCE06402600302066062
:1009DD00900082E0C394345003120C3A90000EE064
:1009ED00D394044003020660900082E075F00A84FF
:0D09FD00E5F06003020660120D24020660A2
:010A0A0022C9
:100E0C007F011218947BFF7A1479A87D017F02125E
:100E1C0018E17BFF7A1479B17D347F72120A0FE4EA
:100E2C00FB7D2D7F191212E9E4FB7D2F7F19121225
:100E3C00E97BFF7A1479C97D287F121211657BFF3B
:100E4C007A1479D97D287F1C1211657BFF7A14796D
:100E5C00E17D287F221211657BFF7A1479C97D28E8
:100E6C007F281211657BFF7A1479E97D287F2E1279
:100E7C0011657BFF7A1479E17D287F341211657B33
:100E8C00FF7A1479D17D287F48121165E4FB7D2D02
:100E9C007F4F1212E9E4FB7D2F7F4F1212E97BFF8B
:100EAC007A1479D17D287F521211657BFF7A1479DF
:100EBC00C97D287F581211657BFF7A1479F17D2842
:100ECC007F601211657BFF7A1479F97D287F661299
:100EDC001165900083E0B406F99000157402F022BD
:1019FB00900015E024FE6021047030120E0C121BB7
:101A0B009A7F011218947FE87E03121B441212274F
:101A1B00AF8AE4FCFDFE02000312054D121B9A7FF8
:0C1A2B00011218947FE87E03121B442275
:071A5F004400D30000000168
:1010A000E47BC87AADF9F89000D3E0FCA3E0FDA39F
:1010B000E0FEA3E0FF1204A1E47B477A0DF9F812E9
:1010C0000416C004C005C006C007E47BC87AADF9A9
:1010D000F89000D3E0FCA3E0FDA3E0FEA3E0FF1244
:1010E00004A1AC00AD01AE02AF03E47B8F7ABCF982
:1010F000F8120416D003D002D001D000C3EF9BFF3A
:10110000EE9AFEED99FDEC98FC9000C1120541901D
:1011100000C1E0FCA3E0FDA3E0FEA3E0FFEC339000
:1011200000C14006A3A3A3E08019E0FCA3E0FDA357
:10113000E0FEA3E024FFFFEE34FFFEED34FFFDEC04
:10114000347FFC9000D31205419000D3E0FCA3E073
:10115000FDA3E0FEA3E0FFE41202BCE4FBFAF97891
:041160004F12021F09
:011164002268
:060003009000D30205414C
:101B240000010002000400080010002000400080B2
:101B340001000200040008001000200040008000A2
:101BD80075A0FFC287D286D28500E5A05480FFC2D7
:011BE8008577
:011BE90022D9
:101B7F00AE07121BD8EF70FAD287C286C28500005B
:0B1B8F00AF068FA0D2850000C28522A7
:101BB000121BD8EF70FA75A0FFD287D286D28500AB
:041BC000AFA0C2858B
:011BC40022FE
:101A9B00E92480FF121AAD9000D1E0FF9000CFE057
:021AAB002FFF0B
:101AAD00AE07121BD8EF70FAC287C286C28500003E
:0D1ABD00AF068FA00000D2850000C2852278
:1018E100AE07EDD394035042EE9407503DC2AFEDE5
:1018F10014600F14601114601324037016EE248019
:10190100800DEE24908008EE24888003EE2498FF59
:10191100121AAD12037BFFD39400400C121B7F748B
:0B1921000129F9E43AFA80EBD2AF2272
:0C12E9009000D0EBF0A9059000CFEFF0D2
:1012F500C3948040030213A9E9C394404003021339
:10130500A99000D0E05401F09000CFE0FF540FFE0B
:10131500C3740F9E9000D2F0EFC4540F9000CFF02D
:10132500E9C394209000D150057480F0800374883F
:10133500F0E9541FF9C2AF7F36121AAD121A9B128B
:101345001BB0AD077C00121BB0EF7D00FC121BB07B
:10135500EFFDD2AFA3E09000D2B40117E025E02461
:1013650024F582E4341BF583E4934CFC7401934D1E
:10137500FD801BE025E02424F582E4341BF583E49D
:1013850093FE740193F4FFEEF45CFCED5FFDC2AFD8
:10139500121A9BECFF121B7FAF05121B7F7F3012C9
:0413A5001AADD2AFFC
:0113A9002221
:0B1ACA009000C7EFF0A3EDF0A3EBF0DD
:101AD5006020E4FA9000C9E0FFEAC39F501490002B
:101AE500C7E02AFFA3E0FD9000CAE0FB1212E90A55
:021AF50080E28D
:011AF70022CC
:1019BC00FFE0FD9000C4E0C39D04FBA3E09000CACF
:0119CC00F02A
:0B19CD009000C7EFF0A3EDF0A3EBF0DB
:1019D8006020E4FA9000C9E0FFEAC39F5014900029
:1019E800C7E0FFA3E02AFD9000CAE0FB1212E90A53
:0219F80080E28B
:0119FA0022CA
:0F15A2009000C2EDF09000C1EFF09000C3EBF0AD
:1015B100EFD39B40169000C1E0FF9000C6F0900071
:1015C100C3E09000C1F09000C3EFF09000C4E0FFD1
:1015D1009000C2E0FED39F400F9000C6EEF0900055
:1015E100C2EFF09000C4EEF09000C1E0A31219BC6C
:1015F1009000C3E09000C21219BC9000C1E0FFA3AB
:10160100E0FDA3E0C39F04FB9000C5E09000CAF099
:10161100121ACA9000C1E0FF9000C4E0FD9000C31F
:10162100E0C39F04FB9000C5E09000CAF0021ACA13
:10189400EF20E004E4FD80027DFF7F36121AADE400
:1018A400FCECC394095031E4FBE4FAC2AFEB2480AE
:1018B400FF121AADEA24802CFF121AADAF05121BD9
:1018C4007FAF05121B7FD2AF0AEAB408DE0BEBB47C
:0D18D40020D774082CFC80C97F30021AADAB
:101B9A00D2847F30121AAD7F0C121AAD7F01121A4D
:061BAA00AD7F06021AAD3A
:101AF8009000C0EFF0A3EDF0A3EBF0EF14FF90001F
:101B0800CAEBF07B03121ACA9000C0E0FFA3E014EE
:0C1B1800FDA3E09000CAF07B030219CD91
:101B4400E4FDFCC3ED9FEC9E5015E4FBFA0BBB00D7
:0F1B5400010AEB64104A70F50DBD00010C80E42E
:011B6300225F
:041A66004100D70064
:04000E007590FC22CB
:10174300AD909000BE7402F09000BEE0FFC3940918
:10175300501F74017E00A807088005C333CE33CE23
:10176300D8F9FFEDFBEF5B60089000BEE004F0806A
:10177300D79000BEE0B408099000D77401F07F0051
:10178300227F647E00121B44AD909000BEE0FF7484
:10179300017E00A807088005C333CE33CED8F9FFF6
:1017A300EF5D640170049000BEF09000D7E0B401D7
:0E17B3000BE4F09000BEE0C39401FF227F0023
:0117C1002205
:10001E00020366E86480F8E933E83360110460F0A7
:10002E00ED33EC337009E8FCE9FDEAFEEBFF220448
:10003E0060DED3EB9FEA9EE99DE8C2E78CF0C2F743
:10004E0095F0400CE8CCF8E9CDF9EACEFAEBCFFB0F
:10005E0012033185D0F05804700320D5B3E8047034
:10006E00075002B2D502037092D5EC0460F7E4CCCF
:10007E00C0E0C398F8603B94186008400DD0E0FBD8
:10008E00020348E4FBFAC9FC8028E830E406E4C920
:10009E00FBE4CAFCE830E305E4C9CACBFCE854072C
:1000AE006010F8C3E913F9EA13FAEB13FBEC13FC37
:1000BE00D8F130F52FC3E49CFCEF9BFFEE9AFEEDDA
:1000CE0099FDD0E0FBEF4E4D4C701222DB03020384
:1000DE006DEC2CFCEF33FFEE33FEED33FDED30E730
:1000EE00EB020348EF2BFFEE3AFEED39FDD0E0FBBD
:1000FE0050130BBB0003020370ED13FDEE13FEEF66
:08010E0013FFEC13FC0203488F
:10011600EC4D6011E8497017ED33EC3304600DE4E3
:10012600FCFFFEFD22E933E8330470F80203661291
:10013600033158046009E4CC248150062850090292
:10014600037028400302036DC0E0EB4A7044B98097
:1001560006D0E0FB02035CEF4E701CBD8008EBFF8F
:10016600EAFEE9FD80EBE98DF0A4FEE5F00201FF71
:10017600E9CDF9EAFEEBFFEF89F0A4FCE5F0CE89C4
:10018600F0A42EFFE435F0CD89F0A42DFEE435F081
:100196008067EF4E7005BD80D780C3EF8BF0A4ACAF
:1001A600F0EE8BF0A42CFCE435F0F8EF8AF0A42CEA
:1001B600E5F038FCE433CB8DF0A42CFCE5F03BF8FD
:1001C600EE8AF0A42CFCE5F038F8E433CF89F0A4ED
:1001D6002CFCE5F038CF3400CE89F0A42FFFE5F0F3
:1001E6003EFEE433C98DF0A42EFEE5F039CD8AF04B
:1001F600A42FFFE5F03EFEE43DFD33D0E0FB5007C3
:100206000BBB000F020370EC2CFCEF33FFEE33FE4A
:06021600ED33FD02034878
:10021C00020370EC5D046005E85904700302036688
:10022C00120331580460F6EC4860F2EC7004FDFEE9
:10023C00FF22C860DB2481C85009C39860025006B5
:10024C0002036D9850CAF582E9294B4A7005AB82BE
:10025C0002035C75F0007C1A7880C3EF9BEE9AED7C
:10026C0099400DC3EF9BFFEE9AFEED99FDE842F02D
:10027C00DC23ACF0D0E0FFD0E0FED0E0FDAB822080
:10028C00E7101BEB60BAEC2CFCEF33FFEE33FEED0A
:10029C0033FD020348E803F830E705C0F075F000C1
:1002AC00EF2FFFEE33FEED33FD40B830E7C280AAEE
:1002BC0075F020800E75F010800575F0087D007EBD
:1002CC00007F003392D530D503120533EC33401048
:1002DC00EF33FFEE33FEED33FDEC33FCD5F0ED22C6
:0E02EC00E5F0247EA2D513CC92E7CDCEFF2202
:1002FA00EDD2E7CD33EC3392D524814006E4FFFEFC
:10030A00FDFC22FCE4CFCECDCC24E0501174FF805A
:10031A00EDC3CC13CCCD13CDCE13CECF13CF0470F7
:07032A00F030D5DE020533BF
:10033100E9D2E7C933E833F892D5EDD2E7CD33EC12
:0703410033FC5002B2D5228B
:10034800EC30E7100FBF000C0EBE00080DBD000416
:100358000BEB6014A2D5EB13FCED92E7FD2274FFC2
:10036800FCFDFEFF22E480F8A2D574FF13FC7D801B
:03037800E480EF2F
:03000000021631B4
:0C163100787FE4F6D8FD7581070216787A
:10037B00BB010689828A83E0225002E722BBFE0280
:09038B00E32289828A83E49322B3
:10039400BB010CE58229F582E5833AF583E022501E
:1003A40006E92582F8E622BBFE06E92582F8E22268
:0D03B400E58229F582E5833AF583E4932282
:1003C100BC000BBE0029EF8DF084FFADF022E4CC20
:1003D100F875F008EF2FFFEE33FEEC33FCEE9DECE9
:1003E100984005FCEE9DFE0FD5F0E9E4CEFD22ED2F
:1003F100F8F5F0EE8420D21CFEADF075F008EF2F79
:10040100FFED33FD4007985006D5F0F222C398FD69
:050411000FD5F0EA2206
:10041600E88FF0A4CC8BF0A42CFCE98EF0A42CFC85
:100426008AF0EDA42CFCEA8EF0A4CDA8F08BF0A403
:100436002DCC3825F0FDE98FF0A42CCD35F0FCEB62
:100446008EF0A4FEA9F0EB8FF0A4CFC5F02ECD3927
:0F045600FEE43CFCEAA42DCE35F0FDE43CFC2294
:1004650075F008758200EF2FFFEE33FECD33CDCC4E
:1004750033CCC58233C5829BED9AEC99E5829840D1
:100485000CF582EE9BFEED9AFDEC99FC0FD5F0D6AE
:10049500E4CEFBE4CDFAE4CCF9A88222B800C1B9D8
:1004A5000059BA002DEC8BF084CFCECDFCE5F0CB16
:1004B500F97818EF2FFFEE33FEED33FDEC33FCEB4F
:1004C50033FB10D703994004EB99FB0FD8E5E4F90A
:1004D500FA227818EF2FFFEE33FEED33FDEC33FCF7
:1004E500C933C910D7059BE99A4007EC9BFCE99AEB
:1004F500F90FD8E0E4C9FAE4CCFB2275F010EF2F30
:10050500FFEE33FEED33FDCC33CCC833C810D7072F
:100515009BEC9AE899400AED9BFDEC9AFCE899F86A
:0E0525000FD5F0DAE4CDFBE4CCFAE4C8F922FD
:0E053300C3E49FFFE49EFEE49DFDE49CFC22D9
:0C054100ECF0A3EDF0A3EEF0A3EFF0222D
:10163D00021BC5E493A3F8E493A34003F68001F2E3
:10164D0008DFF48029E493A3F85407240CC8C333AE
:10165D00C4540F4420C8834004F456800146F6DF7D
:10166D00E4800B0102040810204080901A37E47EBC
:10167D00019360BCA3FF543F30E509541FFEE49372
:10168D00A360010ECF54C025E060A840B8E493A339
:10169D00FAE493A3F8E493A3C8C582C8CAC583CA64
:1016AD00F0A3C8C582C8CAC583CADFE9DEE780BE1C
:011A6A00007B
:00000001FF
